:100000000C942A000C9473000C9473000C947300ED
:100010000C9473000C9473000C9473000C94730094
:100020000C9473000C9473000C9473000C94730084
:100030000C9473000C9473000C9473000C94730074
:100040000C9473000C9473000C9473000C94730064
:100050000C94730011241FBECFE5D8E0DEBFCDBFE6
:0C0060000E9436000C943400F894FFCF8E
:10006C000E9477000E946A000E9475000E946F0037
:10007C00B09B04C0AA9AAF9A939A03C0AA98AF985F
:10008C009398869B05C081E090E00E945E0004C0BE
:10009C0080E090E00E945E00829B05C081E090E0D1
:1000AC000E946400E5CF80E090E00E946400E0CF05
:0C00BC00892B11F0DB9A0895DB98089561
:0C00C800892B11F0DA9A0895DA98089557
:0A00D40084B3846884BB8B9A0895FE
:0800DE00B8988E988A980895E5
:0400E6000C94000076
:0400EA00D39A089508
:0400EE00D29A089505
:00000001FF
